:100000000C949E000C94C6000C94C6000C94C60080
:100010000C94C6000C94C6000C94C6000C94C60048
:100020000C94C6000C94C6000C94C6000C94C60038
:100030000C94C6000C9443040C94C6000C94C600A7
:100040000C94F9030C94C6000C94C7030C94A10300
:100050000C94C6000C94C6000C94C6000C94C60008
:100060000C94C6000C94C60007634236B79BD8A711
:100070001A39685618AEBAAB558C1D3CB7CC5763CD
:10008000BD6DEDFD753EF6177231BF000000803F7B
:1000900008000000BE922449123EABAAAA2ABECD97
:1000A000CCCC4C3E00000080BEABAAAAAA3E000009
:1000B0000000BF000000803F000000000008417801
:1000C000D3BB4387D1133D190E3CC3BD4282AD2B38
:1000D0003E68EC8276BED98FE1A93E4C80EFFFBE30
:1000E00001C4FF7F3F000000000000000008000284
:1000F00001000003040700000000000000000000F1
:100100000000250028002B0000000000240027002C
:100110002A00040404040404040402020202020289
:1001200003030303030301020408102040800102BB
:1001300004081020010204081020370B11241FBEF0
:10014000CFEFD8E0DEBFCDBF22E0A4E2B1E001C036
:100150001D92AF30B207E1F711E0A0E0B1E0E4EAB0
:10016000FEE102C005900D92A432B107D9F710E06C
:10017000CEE9D0E004C02197FE010E946B0BCD397F
:10018000D107C9F70E944D040C94500F0C94000045
:1001900090E0FC01EA5DFE4F2491FC01EE5EFE4F13
:1001A0008491882399F090E0880F991FFC01E85F03
:1001B000FE4FA591B491FC01E250FF4F85919491BF
:1001C0008FB7F894EC91E22BEC938FBF0895CF9208
:1001D000DF92EF92FF920F931F93CF93DF936C0107
:1001E0007A018B01C0E0D0E0CE15DF0589F0D8019F
:1001F0006D918D01D601ED91FC910190F081E02D82
:10020000C6010995892B11F47E0102C02196ECCF1D
:10021000C701DF91CF911F910F91FF90EF90DF9079
:10022000CF900895FC01918D828D981761F0828D99
:10023000DF01A80FB11D5D968C91928D9F5F9F731A
:10024000928F90E008958FEF9FEF0895FC01918DBC
:10025000828D981731F0828DE80FF11D858D90E029
:1002600008958FEF9FEF0895FC01918D228D892FC6
:1002700090E0805C9F4F821B91098F7399270895AE
:1002800080E391E00E94340121E0892B09F420E011
:10029000822F0895FC01848DDF01A80FB11DA35AA0
:1002A000BF4F2C91848D90E001968F739927848F96
:1002B000A689B7892C93A089B1898C9180648C938D
:1002C000938D848D981306C00288F389E02D808178
:1002D0008F7D80830895EF92FF920F931F93CF93AA
:1002E000DF93EC0181E0888F9B8D8C8D981305C086
:1002F000E889F989808185FD24C0F62E0B8D10E0F8
:100300000F5F1F4F0F731127E02E8C8DE8120CC06A
:100310000FB607FCFACFE889F989808185FFF5CF10
:10032000CE010E944A01F1CF8B8DFE01E80FF11D35
:10033000E35AFF4FF0820B8FEA89FB89808180624C
:1003400007C0EE89FF896083E889F989808180642C
:10035000808381E090E0DF91CF911F910F91FF901A
:10036000EF900895CF93DF93EC01888D8823C9F037
:10037000EA89FB89808185FD05C0A889B9898C91AE
:1003800086FD0FC00FB607FCF5CF808185FFF2CF49
:10039000A889B9898C9185FFEDCFCE010E944A01D1
:1003A000E7CFDF91CF91089580E090E0892B29F08D
:1003B0000E94400181110C940000089590E0FC011E
:1003C000E651FF4F3491FC01EA5DFE4F2491FC01A0
:1003D000EE5EFE4FE491EE2309F43BC0332339F186
:1003E000333091F038F43130A9F0323001F584B572
:1003F0008F7D12C0373091F03830A1F03430B9F42D
:10040000809180008F7D03C0809180008F778093E2
:1004100080000DC084B58F7784BD09C08091B00085
:100420008F7703C08091B0008F7D8093B000F0E0A3
:10043000EE0FFF1FE250FF4FA591B4918FB7F894D4
:10044000EC91611103C020952E2301C02E2B2C931B
:100450008FBF08958E3008F08E508770806480932F
:100460007C0080917A00806480937A0080917A0089
:1004700086FDFCCF809178002091790090E0922B4E
:1004800008953FB7F89480912B0190912C01A09191
:100490002D01B0912E0126B5A89B05C02F3F19F064
:1004A0000196A11DB11D3FBFBA2FA92F982F8827F4
:1004B000820F911DA11DB11DBC01CD0142E0660F4F
:1004C000771F881F991F4A95D1F7089508958EBD0B
:1004D00000000DB407FEFDCF8EB508950F931F9356
:1004E000CF93DF93EC01042F6795662767956063D0
:1004F000162F152B8130910519F460E087E00AC0B2
:100500008230910519F460E088E004C0039701F59A
:1005100060E089E00E94DE01812F0E946702802F47
:100520000E946702C130D10519F461E087E005C07F
:10053000C230D10541F461E088E0DF91CF911F9195
:100540000F910C94DE01239769F461E089E0F5CF07
:10055000812F0E946702802FDF91CF911F910F9111
:100560000C946702DF91CF911F910F910895CF9363
:10057000C82F60E085E00E94DE018C2F0E94670298
:1005800061E085E0CF910C94DE018F929F92AF9253
:10059000BF92CF92DF92EF92FF920F931F93CF9370
:1005A000DF93E090D501F090D601A090D701B090F4
:1005B000D8010091D9011091DA01C091DB01D091ED
:1005C000DC01650185E0CC0CDD1C8A95E1F7C701F3
:1005D00024E0880F991F2A95E1F7C82AD92AC80173
:1005E00036E0880F991F3A95E1F7C82AD92ACE013B
:1005F0009695982F882797958795C82AD92AC50157
:10060000880F991F9801220F331F220F331F282BA9
:10061000392B2E293F294E0173E0880C991C7A95BD
:10062000E1F7822A932A60E085E00E94DE01882DAE
:100630008C290E94670261E085E00E94DE018091C2
:10064000CD019091CE0181309105A9F491E0AA9459
:10065000AB2809F090E081E0EA94EF2809F080E00F
:10066000982B81E00130110509F080E0892B21F5FC
:10067000219741F521C00297A9F591E0AA94AB28F2
:1006800009F090E081E0EA94EF2809F080E0982BEF
:1006900081E00130110509F080E0892B11F42197E8
:1006A00069F4809124019091250101969093250190
:1006B00080932401099734F461E005C0109225016C
:1006C0001092240160E086E0DF91CF911F910F919D
:1006D000FF90EF90DF90CF90BF90AF909F908F9062
:1006E0000C94DE01DF91CF911F910F91FF90EF905D
:1006F000DF90CF90BF90AF909F908F9008950E9411
:10070000E50EEF92FF920F931F93CF93DF931F920B
:10071000CDB7DEB77C01FC0100811181C80169837E
:100720000E94EA0E6981681719F0C8010E94F20E52
:10073000C7010F90DF91CF911F910F91FF90EF9024
:1007400008951F920F920FB60F9211242F933F938B
:100750004F935F936F937F938F939F93AF93BF93C9
:10076000EF93FF9380E391E00E944A01FF91EF91A4
:10077000BF91AF919F918F917F916F915F914F91B9
:100780003F912F910F900FBE0F901F9018951F92C1
:100790000F920FB60F9211242F938F939F93EF9385
:1007A000FF93E0914001F09141018081E091460189
:1007B000F091470182FD12C09081809149018F5FC5
:1007C0008F7320914A01821751F0E0914901F0E0C6
:1007D000E05DFE4F958F8093490101C08081FF91BC
:1007E000EF919F918F912F910F900FBE0F901F90BF
:1007F00018951F920F920FB60F9211242F933F93CB
:100800008F939F93AF93BF9380912701909128017D
:10081000A0912901B0912A013091260123E0230FF4
:100820002D3720F40196A11DB11D05C026E8230F28
:100830000296A11DB11D209326018093270190935C
:100840002801A0932901B0932A0180912B01909156
:100850002C01A0912D01B0912E010196A11DB11D79
:1008600080932B0190932C01A0932D01B0932E0126
:10087000BF91AF919F918F913F912F910F900FBE9C
:100880000F901F9018951F920F920FB60F92112480
:100890000F900FBE0F901F901895CF93DF9300D04D
:1008A00000D000D0CDB7DEB7789484B5826084BD27
:1008B00084B5816084BD85B5826085BD85B5816064
:1008C00085BD80916E00816080936E0010928100E2
:1008D000809181008260809381008091810081609D
:1008E000809381008091800081608093800080915E
:1008F000B10084608093B1008091B00081608093EA
:10090000B00080917A00846080937A0080917A00B0
:10091000826080937A0080917A00816080937A006F
:1009200080917A00806880937A001092C100809153
:100930000E010E94C80080910C010E94C8008091A5
:100940000A010E94C80087E00E94C80088E00E9457
:10095000C80089E00E94C80085E00E94C80086E0C7
:100960000E94C8001FB7F89480912F01811124C004
:10097000ECE1F1E08491E0E3F1E09491E82FF0E024
:10098000EE0FFF1FE85FFE4FA591B491EC91E923B4
:1009900021F461E08AE00E94DE018AE00E94C80042
:1009A0008CB580618CBD8CB580648CBD8DE00E945F
:1009B000C8008BE00E94C80080912F018F5F809358
:1009C0002F011FBF8CB58C7F8CBD8DB581608DBD17
:1009D000E0914001F091410182E08083E0913C018F
:1009E000F0913D011082E0913E01F0913F018FECCA
:1009F000808310924801E0914401F091450186E026
:100A00008083E0914201F091430180818061808385
:100A1000E0914201F0914301808188608083E09100
:100A20004201F0914301808180688083E09142011E
:100A3000F091430180818F7D80830E9441024B01B0
:100A40005C01B4E6CB2ED12CE12CF12C0E944102AA
:100A5000DC01CB0188199909AA09BB09883E93409A
:100A6000A105B10558F021E0C21AD108E108F1084A
:100A700088EE880E83E0981EA11CB11CC114D1041D
:100A8000E104F10419F781E090E00E94EA0EC82E1B
:100A9000D12CD092D401C092D30182E090E00E9488
:100AA000EA0EE82EF12CF092EE01E092ED0183E0E7
:100AB00090E00E94EA0E082F10E01093CE01009300
:100AC000CD0184E090E00E94EA0E282F30E03093C0
:100AD000090120930801FFEFCF16D10431F481E022
:100AE00090E09093D4018093D3018FEFE816F10446
:100AF00031F481E090E09093EE018093ED010F3F9F
:100B0000110531F481E090E09093CE018093CD0106
:100B10002F3F310521F41092090110920801A4E63B
:100B20002A2E312CFFEFEF2EF1E0FF2E00E010E037
:100B3000B8016170772770930F0160930E0101FB7C
:100B4000BB24B0F8B0920C0110920D016801D5944D
:100B5000C794D594C794D0920B01C0920A0182E049
:100B60000E94DE016B2D83E00E94DE016C2D84E08B
:100B70000E94DE0182E10E942A022DEF3FE0DC01AB
:100B80000E94640B2FEF33E040E050E00E94000F22
:100B9000D7012D933D937D010F5F1F4F0830110545
:100BA00039F68EE00E942A02BC01990F880B990B3E
:100BB0000E94C00C2B013C016093FB017093FC016F
:100BC0008093FD019093FE018FE00E942A02BC01F8
:100BD000990F880B990B0E94C00C4B015C0160932C
:100BE000F7017093F8018093F9019093FA0180E185
:100BF0000E942A02BC01990F880B990B0E94C00C1D
:100C00006B017C016093F3017093F4018093F50113
:100C10009093F60181E10E942A02BC01990F880B92
:100C2000990B0E94C00C6B837C838D839E836093A1
:100C3000EF017093F0018093F1019093F2018091A4
:100C4000ED019091EE018230910561F183309105C3
:100C500009F46BC0019709F0B2C04092E9015092CB
:100C6000EA016092EB017092EC018092E5019092B2
:100C7000E601A092E701B092E801C092E101D092B2
:100C8000E201E092E301F092E4018B819C81AD816D
:100C9000BE818093DD019093DE01A093DF01B093CC
:100CA000E0018DC0C301B2010E94DE0D20E030E002
:100CB0004AEA53E40E946A0E6093E9017093EA01E4
:100CC0008093EB019093EC01C501B4010E94DE0D0D
:100CD00020E030E04AEA53E40E946A0E6093E501A6
:100CE0007093E6018093E7019093E801C701B60194
:100CF0000E94DE0D20E030E04AEA53E40E946A0ED2
:100D00006093E1017093E2018093E3019093E40129
:100D10006B817C818D819E810E94DE0D20E030E020
:100D20004AEA53E40E946A0E42C020E030E040E10B
:100D300053E4C301B2010E94E30B0E945D0C609377
:100D4000E9017093EA018093EB019093EC0120E0BC
:100D500030E040E153E4C501B4010E94E30B0E947E
:100D60005D0C6093E5017093E6018093E701909339
:100D7000E80120E030E040E153E4C701B6010E9401
:100D8000E30B0E945D0C6093E1017093E20180939C
:100D9000E3019093E40120E030E040E153E46B8113
:100DA0007C818D819E810E94E30B0E945D0C60938B
:100DB000DD017093DE018093DF019093E001C0902C
:100DC000E901D090EA01E090EB01F090EC0120E025
:100DD00030E040EA50E4C701B6010E94970D87FD5C
:100DE0007FC020E030E040EA50E46091E50170917E
:100DF000E6018091E7019091E8010E94DE0B87FFF8
:100E00006FC020E030E040EA50E46091E101709171
:100E1000E2018091E3019091E4010E94DE0B87FFE3
:100E20005FC020E030E040EA50E46091DD01709165
:100E3000DE018091DF019091E0010E94DE0B87FFCF
:100E40004FC04091FF015091000260E083E090E0CC
:100E50000E946E02409107025091080261E083E017
:100E600090E00E946E0281E090E09093D601809322
:100E7000D5010E94C5026091080170910901072EF9
:100E8000000C880B990B0E94C00C4B015C019B016C
:100E9000AC01C701B6010E94970D181674F5A501A3
:100EA0009401C701B6010E94710B4B015C01609176
:100EB000D3017091D401072E000C880B990B0E946E
:100EC000C00C9B01AC01C501B4010E946A0E0E94D6
:100ED0008F0CAB0160E081E090E00E946E020DC0DB
:100EE00040E050E060E081E090E00E946E021092ED
:100EF000D6011092D5010E94C5028090E501909024
:100F0000E601A090E701B090E80120E030E040EA7F
:100F100050E4C501B4010E94970D87FD77C020E021
:100F200030E040EA50E4C701B6010E94DE0B87FFC3
:100F30006DC020E030E040EA50E46091E101709142
:100F4000E2018091E3019091E4010E94DE0B87FFB2
:100F50005DC020E030E040EA50E46091DD01709136
:100F6000DE018091DF019091E0010E94DE0B87FF9E
:100F70004DC0409101025091020260E083E090E098
:100F80000E946E024091090250910A0261E083E0E2
:100F900090E00E946E026091080170910901072E95
:100FA000000C880B990B0E94C00C6B017C019B010B
:100FB000AC01C501B4010E94970D181604F5A701F4
:100FC0009601C501B4010E94710B6B017C01609117
:100FD000D3017091D401072E000C880B990B0E944D
:100FE000C00C9B01AC01C701B6010E946A0E0E94B1
:100FF0008F0CAB0161E081E090E00E946E0281E025
:1010000090E09093D8018093D7010BC040E050E06E
:1010100061E081E090E00E946E021092D80110928F
:10102000D7010E94C502C090E101D090E201E0909A
:10103000E301F090E40120E030E040EA50E4C70131
:10104000B6010E94970D87FD7DC020E030E040EAA8
:1010500050E46091E9017091EA018091EB01909177
:10106000EC010E94DE0B87FF6DC020E030E040EA1B
:1010700050E46091E5017091E6018091E701909163
:10108000E8010E94DE0B87FF5DC020E030E040EA0F
:1010900050E46091DD017091DE018091DF0190915B
:1010A000E0010E94DE0B87FF4DC04091030250918A
:1010B000040260E083E090E00E946E0240910B0227
:1010C00050910C0261E083E090E00E946E0260911A
:1010D000080170910901072E000C880B990B0E94E2
:1010E000C00C4B015C019B01AC01C701B6010E9421
:1010F000970D181604F5A5019401C701B6010E94C9
:10110000710B6B017C016091D3017091D401072EAA
:10111000000C880B990B0E94C00C9B01AC01C7010D
:10112000B6010E946A0E0E948F0CAB0160E082E063
:1011300090E00E946E0281E090E09093DA0180934B
:10114000D9010BC040E050E060E082E090E00E94F6
:101150006E021092DA011092D9010E94C502C0906D
:10116000DD01D090DE01E090DF01F090E00120E0B1
:1011700030E040EA50E4C701B6010E94970D87FDB8
:101180007DC020E030E040EA50E46091E9017091D8
:10119000EA018091EB019091EC010E94DE0B87FF48
:1011A0006DC020E030E040EA50E46091E5017091CC
:1011B000E6018091E7019091E8010E94DE0B87FF34
:1011C0005DC020E030E040EA50E46091E1017091C0
:1011D000E2018091E3019091E4010E94DE0B87FF20
:1011E0004DC0409105025091060260E083E090E01E
:1011F0000E946E0240910D0250910E0261E083E068
:1012000090E00E946E026091080170910901072E22
:10121000000C880B990B0E94C00C4B015C019B01D8
:10122000AC01C701B6010E94970D181604F5A5017F
:101230009401C701B6010E94710B6B017C016091A2
:10124000D3017091D401072E000C880B990B0E94DA
:10125000C00C9B01AC01C701B6010E946A0E0E943E
:101260008F0CAB0161E082E090E00E946E0281E0B1
:1012700090E09093DC018093DB010BC040E050E0F4
:1012800061E082E090E00E946E021092DC01109218
:10129000DB010E94C50220E030E040EA50E46091AA
:1012A000E9017091EA018091EB019091EC010E94BB
:1012B000970D87FD85C120E030E040EA50E4609161
:1012C000E5017091E6018091E7019091E8010E94AB
:1012D000970D87FD75C120E030E040EA50E4609151
:1012E000E1017091E2018091E3019091E4010E949B
:1012F000970D87FD65C18091D1019091D201019632
:101300008C32A1E09A0729F09093D2018093D10109
:1013100057C11092D2011092D10182E090E09093D7
:10132000D0018093CF0101E010E08091CF01909136
:10133000D0010297E9F48EE00E942A020597ACF7EB
:101340008FE00E942A02059784F780E10E942A021A
:1013500005975CF781E10E942A02059734F7109304
:10136000D0010093CF0180EF90E00E94B702DDCF63
:10137000E12CF12CA12CB12CC12CD12C612C712C85
:1013800004EC19E088248394912C4090CF01509074
:10139000D00191E04916510409F012C18EE00E947B
:1013A0002A0206976CF1672821F066246394712C59
:1013B00027C0809106019091070101968530910523
:1013C0000CF411C1509207014092060100910601F0
:1013D000109107010230110509F4FFC00CF0F3C0B1
:1013E0000130110541F480E190E00E94B7021093B2
:1013F000D4010093D30166246394712C08E813E1AF
:101400008EE00E942A02059714F4612C712C8FE063
:101410000E942A0206977CF1CD2821F0CC24C394A7
:10142000D12C29C08091040190910501019684304E
:1014300091050CF4E3C090920501809204010091A3
:101440000401109105010230110509F4D1C00330E7
:10145000110509F4D0C00130110541F480E190E09C
:101460000E94B7021093EE010093ED01CC24C394C7
:10147000D12C04EC19E08FE00E942A02059714F4A5
:10148000C12CD12C80E10E942A02069744F1AB289E
:1014900021F0AA24A394B12C22C080910201909142
:1014A00003010196833091050CF4B8C090920301BA
:1014B0008092020180910201909103018130910597
:1014C00009F0A1C09093CE018093CD0180E390E01C
:1014D0000E94B702AA24A394B12C04EC19E080E185
:1014E0000E942A02059714F4A12CB12C81E10E94DC
:1014F0002A0206974CF1E114F10431F580910001C4
:10150000909101010196853091050CF4ABC0909249
:1015100001018092000180910001909101018230CF
:10152000910509F48FC00CF07EC0019741F4109230
:1015300009011092080180E190E00E94B702EE24B8
:10154000E394F12C04EC19E081E10E942A02059752
:1015500034F491E0E916F10411F4E12CF12C01507E
:101560001109101611060CF410CF1092D001109230
:10157000CF016091D3019A828982CE0101960E94A7
:1015800081036091ED01A2E0B0E0BA83A983CE01AE
:1015900001960E9481036091CD01E3E0F0E0FA83BF
:1015A000E983CE0101960E9481036091080184E0E5
:1015B00090E09A838983CE0101960E948103E5CE53
:1015C0000E94D401AFCA0330110551F00430110557
:1015D00009F011CF80E890E008CF80E290E005CFDD
:1015E00080E490E002CF9093070180930601EECE55
:1015F00080E290E035CF80E490E032CF9093050117
:10160000809304011CCF8230910509F063CF909341
:10161000CE018093CD0180EC90E05ACF90930301EE
:101620008093020147CF83309105A9F0049709F018
:1016300086CF88EC90E0909309018093080180E8C0
:1016400090E07BCFE2E3F0E0F0930901E093080142
:1016500080E290E072CF309209012092080180E48C
:1016600090E06BCF909301018093000154CFE0E3B1
:10167000F1E01382128288EE93E0A0E0B0E0848370
:101680009583A683B78388E191E09183808385EC7D
:1016900090E09587848784EC90E09787868780EC3C
:1016A00090E0918B808B81EC90E0938B828B82EC2D
:1016B00090E0958B848B86EC90E0978B868B118ED7
:1016C000128E138E148E08950E94410FB7FF089555
:1016D000821B930B0895EE0FFF1F0590F491E02DF0
:1016E00009945058BB27AA270E94890B0C945D0DC2
:1016F0000E944F0D38F00E94560D20F039F49F3FA4
:1017000019F426F40C94250D0EF4E095E7FB0C94E7
:101710001F0DE92F0E946E0D58F3BA176207730769
:101720008407950720F079F4A6F50C94900D0EF43B
:10173000E0950B2EBA2FA02D0B01B90190010C01E1
:10174000CA01A0011124FF27591B99F0593F50F4F9
:10175000503E68F11A16F040A22F232F342F442751
:10176000585FF3CF469537952795A795F040539549
:10177000C9F77EF41F16BA0B620B730B840BBAF019
:101780009150A1F0FF0FBB1F661F771F881FC2F784
:101790000EC0BA0F621F731F841F48F48795779598
:1017A0006795B795F7959E3F08F0B0CF9395880F52
:1017B00008F09927EE0F9795879508950E94FB0CE6
:1017C00008F481E008950E94F70B0C945D0D0E94CF
:1017D000560D58F00E944F0D40F029F45F3F29F05C
:1017E0000C941F0D51110C94910D0C94250D0E9419
:1017F0006E0D68F39923B1F3552391F3951B550BA7
:10180000BB27AA2762177307840738F09F5F5F4FD3
:10181000220F331F441FAA1FA9F335D00E2E3AF012
:10182000E0E832D091505040E695001CCAF72BD02A
:10183000FE2F29D0660F771F881FBB1F261737077B
:101840004807AB07B0E809F0BB0B802DBF01FF27AD
:1018500093585F4F3AF09E3F510578F00C941F0D5E
:101860000C94910D5F3FE4F3983ED4F38695779501
:101870006795B795F7959F5FC9F7880F911D969566
:10188000879597F90895E1E0660F771F881FBB1FC2
:10189000621773078407BA0720F0621B730B840B6F
:1018A000BA0BEE1F88F7E095089529F416F00C9412
:1018B0001F0D0C94900D0C94250D0E94760DA8F32D
:1018C0009638A0F707F80F92E8942BE33AEA48EB32
:1018D0005FE70E94800E0F920F920F924DB75EB796
:1018E0000F920E94360EE8E6F0E00E94280D4F911C
:1018F0005F91EF91FF91E595EE1FFF1F49F0FE57B5
:10190000E0684427EE0F441FFA95E1F74195550B27
:101910000E94A80D0F9007FE0C949C0D08950E9444
:10192000760D88F09F5798F0B92F9927B751B0F0EE
:10193000E1F0660F771F881F991F1AF0BA95C9F753
:1019400014C0B13091F00E94900DB1E008950C9454
:10195000900D672F782F8827B85F39F0B93FCCF307
:10196000869577956795B395D9F73EF490958095D0
:10197000709561957F4F8F4F9F4F0895E89409C0F0
:1019800097FB3EF490958095709561957F4F8F4FB2
:101990009F4F9923A9F0F92F96E9BB279395F695C8
:1019A000879577956795B795F111F8CFFAF4BB0F46
:1019B00011F460FF1BC06F5F7F4F8F4F9F4F16C0AA
:1019C000882311F096E911C0772321F09EE8872F34
:1019D000762F05C0662371F096E8862F70E060E0F0
:1019E0002AF09A95660F771F881FDAF7880F969569
:1019F000879597F90895990F0008550FAA0BE0E80D
:101A0000FEEF16161706E807F907C0F012161306C0
:101A1000E407F50798F0621B730B840B950B39F400
:101A20000A2661F0232B242B252B21F408950A2666
:101A300009F4A140A6958FEF811D811D089597F9A6
:101A40009F6780E870E060E008959FEF80EC089564
:101A5000DF93CF931F930F93FF92EF92DF927B015F
:101A60008C01689406C0DA2EEF010E947D0EFE0103
:101A7000E894A5912591359145915591A6F3EF01F3
:101A80000E94890BFE019701A801DA9469F7DF90A3
:101A9000EF90FF900F911F91CF91DF910895002457
:101AA0000A941616170618060906089500240A94C3
:101AB00012161306140605060895092E0394000C49
:101AC00011F4882352F0BB0F40F4BF2B11F460FFD8
:101AD00004C06F5F7F4F8F4F9F4F089557FD905801
:101AE000440F551F59F05F3F71F04795880F97FBE2
:101AF000991F61F09F3F79F087950895121613069C
:101B00001406551FF2CF4695F1DF08C016161706CA
:101B10001806991FF1CF86957105610508940895FF
:101B2000E894BB2766277727CB0197F908950E9491
:101B3000FB0C08F48FEF08959B01AC0160E070E0AE
:101B400080E89FE30C94E30B0C941F0D0C94D70ECC
:101B50000E94760DD8F39923C9F3940F511DA3F376
:101B60009150504094F059F0882332F0660F771F5F
:101B7000881F91505040C1F79E3F51052CF7880FA8
:101B8000911D9695879597F908955F3FACF0983E23
:101B90009CF0BB27869577956795B79508F4B1605B
:101BA0009395C1F7BB0F58F711F460FFE8CF6F5F53
:101BB0007F4F8F4F9F4FE3CF0C94910D0E94EE0DFE
:101BC00029ED3BE54EED5EE30C946A0E16F00C94A5
:101BD000D70E0C94250D68940C941F0D0E94760D61
:101BE000A8F39923C1F3AEF3DF93CF931F930F9321
:101BF000FF92C92FDD2788232AF02197660F771FD0
:101C0000881FDAF720E030E040E85FEB9FE3883997
:101C100020F0803E38F021968F770E94720BE0E929
:101C2000F0E004C00E94720BEDEBF0E00E94280D82
:101C30008B01BE01EC01FB2E6F5771097595771F63
:101C4000880B990B0E94C00C28E132E741E35FE367
:101C50000E947D0EAF2D9801AE01FF900F911F9154
:101C6000CF91DF910E94890B0C945D0DFA01DC018C
:101C7000AA0FBB1F9B01AC01BF5728F422273327B3
:101C80004427507820C0B75190F4AB2F00244695DC
:101C900037952795011CA395D2F3002071F0220FF0
:101CA000331F441FB395DAF30ED00C94710B6130DF
:101CB0007105A0E88A07B94630F49B01AC0166279C
:101CC000772788279078309621F0208331834283CC
:101CD000538308950E947D0E0C945D0D0E944F0D5C
:101CE00038F00E94560D20F0952311F00C941F0D32
:101CF0000C94250D11240C94910D0E946E0D70F31F
:101D0000959FC1F3950F50E0551F629FF001729FA0
:101D1000BB27F00DB11D639FAA27F00DB11DAA1FAF
:101D2000649F6627B00DA11D661F829F2227B00DFC
:101D3000A11D621F739FB00DA11D621F839FA00D87
:101D4000611D221F749F3327A00D611D231F849FD7
:101D5000600D211D822F762F6A2F11249F5750402E
:101D60009AF0F1F088234AF0EE0FFF1FBB1F661FA9
:101D7000771F881F91505040A9F79E3F510580F072
:101D80000C941F0D0C94910D5F3FE4F3983ED4F337
:101D9000869577956795B795F795E7959F5FC1F716
:101DA000FE2B880F911D9695879597F908959F3F73
:101DB00031F0915020F4879577956795B795880F06
:101DC000911D9695879597F9089581E090E0F89494
:101DD0000C94500FF999FECF92BD81BDF89A9927C6
:101DE00080B50895262FF999FECF1FBA92BD81BD07
:101DF00020BD0FB6F894FA9AF99A0FBE019608958D
:101E0000052E97FB1EF400940E94170F57FD07D074
:101E10000E941F0F07FC03D04EF40C94170F50952F
:101E20004095309521953F4F4F4F5F4F08959095C6
:101E30008095709561957F4F8F4F9F4F0895A1E2D8
:101E40001A2EAA1BBB1BFD010DC0AA1FBB1FEE1F34
:101E5000FF1FA217B307E407F50720F0A21BB30B7F
:101E6000E40BF50B661F771F881F991F1A9469F7FB
:101E700060957095809590959B01AC01BD01CF0157
:101E80000895A29FB001B39FC001A39F700D811D53
:101E90001124911DB29F700D811D1124911D089573
:041EA000F894FFCFE4
:101EA40001000100010001003C00040003000200E5
:101EB40001000000000000006B01E7003401120182
:041EC4002601B20140
:00000001FF
